:030000000212CE1B
:0C12CE00787FE4F6D8FD75815F021315EF
:100B5A0041542B5253540D0A0041542B43574D4FC5
:100B6A0044453D320D0A0041542B4349504D5558D6
:100B7A003D310D0A0041542B43494653520D0A0098
:100B8A0041542B4349505345525645523D312C3816
:100B9A003837360D0A0057696E53797342794C79A2
:100BAA00642020202078200077696E646F772020E7
:100BBA002073797374656D202000533D32353320DC
:100BCA00543D383520553D3835250042723D2020A8
:100BDA0020202031323A30303A3030200077696EA6
:100BEA00646F77206F70656E2020202020200077A8
:100BFA00696E646F7720636C6F73652020202020F4
:100C0A00004757627269673D202020204C555820C2
:100C1A00200055502D48756D3D202020202520208C
:100C2A00202000506C6561736520696E7075742EA2
:100C3A002E2E202000506C656173652077616974DF
:100C4A002E2E2E20200055502D54454D3D2020207B
:100C5A00206F4320202000534574696D65202031A0
:100C6A00323A30303A3030004F4E74696D65202088
:100C7A0031323A30303A3030004F4674696D65206F
:100C8A002031323A30303A30300055502D534D4FE2
:100C9A003D202020202020202020004B576272690E
:100CAA00673D202020204C55582020004C696E6B4F
:100CBA0020537563636573732020203120004C69CB
:100CCA006E6B205375636365737320202032200096
:100CDA0057616974204D6573736167652020203000
:100CEA00200001030206040C080909080C04060284
:020CFA000301F4
:1016BD0054002F000000000000000000000000009A
:1016CD000000000000000041002A004100466601B4
:1016DD001B0004100000000002180000480000006C
:1016ED00000000000000004800080000000000009D
:1016FD000000480010000000000000000048001825
:10170D000000000000000000480020000000000064
:03171D00000000C9
:10196C00D3EF9400EE9400400EE4FD0DEDB41BFBA0
:07197C00EF1F70EC1E80E973
:011983002241
:10184E0090004FE014F0E014F0E014F0E014F0E03B
:10185E0014F0E014F0E014F0E014F0E014F0E014F2
:07186E00F0E014F0E014F0BB
:011875002250
:10172100E4FC90002D7402F020B70A90002DE0FE39
:1017310004F0EE70F312184E12184EE4900045F0CA
:1017410030B70204F090002D7402F030B70A900017
:101751002DE0FE04F0EE70F390002DE064016016C0
:1017610090004EE025E0FEF0900045E04E90004EE6
:06177100F00CECB408AC22
:01177700224F
:10116B00C2B77FB47E0012196CD2B712184E121888
:10117B004E12184E12184ED2B730B70302122490EB
:10118B00002D7402F020B70A90002DE0FF04F0EF61
:10119B0070F390002D7402F030B70A90002DE0FF31
:1011AB0004F0EF70F312172190004EE090004AF01C
:1011BB0012172190004EE090004DF0121721900075
:1011CB004EE090002BF012172190004EE090002C77
:1011DB00F012172190004EE0FF900044F0D2B79030
:1011EB00002CE0FE90002BE0FD2EFC90004AE0FB73
:1011FB002CFC90004DE0FA2C900045F0B5071A90AE
:10120B000047EBF0900049EAF0900028EDF0A3EED8
:0A121B00F0900044E090002EF02255
:1015E200C2B20000D2B4D2B60000C2B60000A2005D
:1015F20092B4D2B60000C2B60000A20192B4D2B632
:101602000000C2B6D2B4E4FFFEEF25E0FFD2B6007E
:1016120000C2B60000A2B4E4334FFF0EEEB408E9F4
:10162200E4FD30B4037480FDE4FEEDC313FDD2B6D5
:101632000000C2B6000030B4034480FD0EEEB407D1
:0E164200E9D2B2C2B6D2B4EFB50501227F00E4
:011650002277
:0C19DC007F7B7ED47D19DDFEDEFADFF695
:0119E80022DC
:0D182300900C2DEF93FF1218A57F027E00A0
:10183000D3EF9400EE940040147D0A7C00ED1D70FF
:0D184000011CED4C70F7EF1F70E61E80E3F9
:01184D002278
:1018FE00D3EF9400EE940040147DF47C01ED1D7046
:0D190E00011CED4C70F7EF1F70E61E80E32A
:01191B0022A9
:0718BE007F881218C57F0EA0
:1018C500C2A0C2A28F807F057E00121830D2A27FEF
:0918D500057E00121830C2A222A7
:09189C001218C5A3A3E02430FFDB
:1018A500D2A0C2A28F807F057E00121830D2A27FFF
:0918B500057E00121830C2A222C7
:10165100C2A1C2A27F381218C57F0C1218C57F061D
:101661001218C57F011218C57F801218C5E4FBEB63
:10167100900BA01218270BEBB410F47FC01218C501
:10168100E4FBEB900BB21218270BEBB410F47FC8FC
:101691007E001218FE7F801218C5E4FBEB900BF957
:1016A1001218270BEBB410F47FC01218C5E4FBEB42
:0B16B100900C3F1218270BEBB410F454
:0116BC00220B
:10191C00D3EF9400EE940040147D6E7C00ED1D70AE
:0D192C00011CED4C70F7EF1F70E61E80E30C
:01193900228B
:0519AD007BFF12199AF6
:0C19B2007F5F7E1A7DB9DDFEDEFADFF6F5
:0119BE002206
:10198400758920759850758780758DF3858D8BD2F8
:06199400AFD2ACD28E229E
:0E19CE00C2ACC2998F993099FDC299D2AC2259
:0300230002146262
:10146200C0E0C083C082C0D075D000C0073098658C
:10147200C29890002AE0242FF582E43400F583E537
:1014820099F090002AE004F0900046E0647470380D
:1014920090002AE0FF242DF582E43400F583E0B4C5
:1014A2000D19742E2FF582E43400F583E0B40A0B93
:1014B20090002AE0C394024002801690002AE0D3F2
:1014C20094144011E4F0800D90002AE0C39402408D
:1014D20004E4F0D202D007D0D0D082D083D0E03260
:10199A00120999FF600C1219CE740129F9E43AFA76
:0319AA0080EE22AA
:101778007A0B795A1219AD1219B27A0B79631219C8
:10178800AD3002F6C2027BFF7A0B797112199A12F8
:1017980019B23002F1C2027BFF7A0B798A12199AC8
:0F17A8001219B23002F1C2029000467474F0229E
:0E19BF00AF4EAE4DEF1FAC0670011E4C70F621
:0119CD0022F7
:10193A00E4FBFAEB900CEC93F5901219BF0BBB0089
:08194A00010AEB64084A70EB8E
:011952002272
:10195300E4FBFAEB900CF493F5901219BF0BBB0068
:08196300010AEB64084A70EB75
:01196B002259
:1017B7001218C51217C885354F8536507F8B1218FA
:0117C700C55C
:1017C800AE4FAF507C007D0A1209B2AB07AE4FAFE7
:1017D800507C007D0A1209B2AA05EB2430FF1218CA
:0817E800A5EA2430FF0218A558
:10002E0020A425C28EC2A9C2ABC2CAC2ADC28AC2A8
:10003E008CC2AA1219841210A0C28E758730E4F5F4
:10004E0098C2ACC2AF1217F0E53F64016003020123
:10005E0031E5336401706420A6617F801218C5E417
:10006E0090004FF090004FE0FFC39410500E900B95
:10007E00E712182690004FE004F080E87FC01218B7
:10008E00C5E490004FF090004FE0FFC39410500F66
:10009E00EF900C3F12182790004FE004F080E775A8
:1000AE0024017F0A7E0012183020A60F30A6FD759F
:1000BE005D01E4F55CF521F53FF534E5246401704E
:1000CE006220A75F7F801218C5E490004FF0900069
:1000DE004FE0FFC39410500FEF900BF912182790BA
:1000EE00004FE004F080E77FC01218C5E490004F87
:1000FE00F090004FE0FFC39410500FEF900C3F12A2
:10010E00182790004FE004F080E77F0A7E00121857
:10011E003020A70F30A7FDE4F55D755C01F521F5E4
:10012E003FF534E5346401600302099820A5167585
:10013E0037017F0AFE12183020A50A30A5FDE4F51E
:10014E002B0538F53FE53864017064E537640170BE
:10015E005E7F801218C5E490004FF090004FE0FFD4
:10016E00C39410500FEF900C6112182790004FE0BF
:10017E0004F080E77FC01218C5E490004FF09000A5
:10018E004FE0FFC39410500E121823E4F537900081
:10019E004FE004F080E885484F8549507F8812175C
:1001AE00B7852C4F852D507F8E1218C51217C8E5B6
:1001BE00386402704D85484F8549501218BE20A4F0
:1001CE001F30A4FD0549E5497002054885484FF5E5
:1001DE00501217C8E549641845487004F548F549AA
:1001EE0020A31F30A3FDE549154970021548854827
:1001FE004F8549501217C8E54945487005F54875B1
:10020E004917E5386403704F85354F8536507F8B1F
:10021E001218C020A41F30A4FD0536E53670020565
:10022E003585354FF5501217C8E536643C453570A7
:10023E0004F535F53620A31F30A3FDE536153670CF
:10024E0002153585354F8536501217C8E5364535BA
:10025E007005F53575363BE5386404704F852C4FC7
:10026E00852D507F8E1218C020A41F30A4FD052DA1
:10027E00E52D7002052C852C4FF5501217C8E52D73
:10028E00643C452C7004F52CF52D20A31F30A3FDE6
:10029E00E52D152D7002152C852C4F852D5012171E
:1002AE00C8E52D452C7005F52C752D3BE5386405FC
:1002BE007070E5376401706A7F801218C5E4900093
:1002CE004FF090004FE0FFC39410500FEF900C7260
:1002DE0012182790004FE004F080E77FC01218C577
:1002EE00E490004FF090004FE0FFC39410500B12BB
:1002FE00182390004FE004F080EB855A4F855B5039
:10030E007F881218C51217C8854B4F854C5012178F
:10031E00C385424F8543507F8E1218C51217C8E40D
:10032E00F537E538640670471218BE20A41F30A4B6
:10033E00FD055BE55B7002055A855A4FF5501217A5
:10034E00C8E55B6418455A7004F55AF55B20A31F87
:10035E0030A3FDE55B155B7002155A855A4F855B20
:10036E00501217C8E55B455A7005F55A755B17E5CF
:10037E0038640770497F8B1218C020A41F30A4FD6B
:10038E00054CE54C7002054B854B4FF5501217C8C6
:10039E00E54C643C454B7004F54BF54C20A31F30E7
:1003AE00A3FDE54C154C7002154B854B4F854C50FB
:1003BE001217C8E54C454B7005F54B754C3BE538AF
:1003CE00640870497F8E1218C020A41F30A4FD054A
:1003DE0043E5437002054285424FF5501217C8E5BA
:1003EE0043643C45427004F542F54320A31F30A3FD
:1003FE00FDE54315437002154285424F8543501269
:10040E0017C8E54345427005F54275433BE5386430
:10041E00097070E5376401706A7F801218C5E49028
:10042E00004FF090004FE0FFC39410500FEF900C70
:10043E008312182790004FE004F080E77FC0121857
:10044E00C5E490004FF090004FE0FFC39410500EA3
:10045E00121823E4F53790004FE004F080E8855140
:10046E004F8552507F881218C51217C885444F8584
:10047E0045501217C385394F853A507F8E1218C5D5
:10048E001217C8E538640A70471218BE20A41F3030
:10049E00A4FD0552E5527002055185514FF55012DB
:1004AE0017C8E552641845517004F551F55220A352
:1004BE001F30A3FDE55215527002155185514F851F
:1004CE0052501217C8E55245517005F55175521725
:1004DE00E538640B70497F8B1218C020A41F30A41E
:1004EE00FD0545E5457002054485444FF55012174C
:1004FE00C8E545643C45447004F544F54520A31F0A
:10050E0030A3FDE54515457002154485444F8545DC
:10051E00501217C8E54545447005F54475453BE551
:10052E0038640C70497F8E1218C020A41F30A4FDB1
:10053E00053AE53A7002053985394FF5501217C85C
:10054E00E53A643C45397004F539F53A20A31F307D
:10055E00A3FDE53A153A7002153985394F853A50A3
:10056E001217C8E53A45397005F539753A3BE53845
:10057E00640D60030206257F0C1218C512135AE58E
:10058E0037640170457F801218C5E490004FF090DB
:10059E00004FE0FFC39410500FEF900C0B12182772
:1005AE0090004FE004F080E77FC01218C5E4900081
:1005BE004FF090004FE0FFC39410500E121823E43A
:1005CE00F53790004FE004F080E820A4247F0A7EE7
:1005DE000012183020A41A30A4FD0523E523700262
:1005EE00052212135AE52364FA45227004F522F50A
:1005FE002320A3237F0A7E0012183020A31930A3D4
:10060E00FDE52315237002152212135AE523452208
:10061E007005F5227523FAE538640E60030206ECC8
:10062E007F0C1218C5900020E525F0A3E526F012E8
:10063E001364E537640170457F801218C5E490009D
:10064E004FF090004FE0FFC39410500FEF900CA5A9
:10065E0012182790004FE004F080E77FC01218C5F3
:10066E00E490004FF090004FE0FFC39410500E1234
:10067E001823E4F53790004FE004F080E820A42E14
:10068E007F0A7E0012183020A42430A4FD0526E532
:10069E002670020525900020E525F0A3E526F01230
:1006AE001364E52664FA45257004F525F52620A386
:1006BE002D7F0A7E0012183020A32330A3FDE526DD
:1006CE00152670021525900020E525F0A3E526F0ED
:1006DE00121364E52645257005F5257526FAE538CD
:1006EE00640F60030207AE900020E53DF0A3E53EE7
:1006FE00F0121364E537640170457F801218C5E46B
:10070E0090004FF090004FE0FFC39410500FEF9009
:10071E000C1C12182790004FE004F080E77FC012E7
:10072E0018C5E490004FF090004FE0FFC3941050B6
:10073E000E121823E4F53790004FE004F080E82005
:10074E00A42E7F0A7E0012183020A42430A4FD05AA
:10075E003EE53E7002053D900020E53DF0A3E53EEE
:10076E00F0121364E53E6464453D7004F53DF53EBC
:10077E0020A32D7F0A7E0012183020A32330A3FD64
:10078E00E53E153E7002153D900020E53DF0A3E5D7
:10079E003EF0121364E53E453D7005F53D753E6431
:1007AE00E53864106003020870900020E52FF0A376
:1007BE00E530F0121364E537640170457F8012183E
:1007CE00C5E490004FF090004FE0FFC39410500F1F
:1007DE00EF900C5012182790004FE004F080E77F46
:1007EE00C01218C5E490004FF090004FE0FFC39484
:1007FE0010500E121823E4F53790004FE004F080ED
:10080E00E820A42E7F0A7E0012183020A42430A4E3
:10081E00FD0530E5307002052F900020E52FF0A386
:10082E00E530F0121364E5306464452F7004F52F43
:10083E00F53020A32D7F0A7E0012183020A323301E
:10084E00A3FDE53015307002152F900020E52FF036
:10085E00A3E530F0121364E530452F7005F52F75C2
:10086E003064E53864116003020932900020E540DF
:10087E00F0A3E541F0121364E537640170457F8003
:10088E001218C5E490004FF090004FE0FFC3941093
:10089E00500FEF900C9412182790004FE004F08048
:1008AE00E77FC01218C5E490004FF090004FE0FFB4
:1008BE00C39410500E121823E4F53790004FE00445
:1008CE00F080E820A42E7F0A7E0012183020A42487
:1008DE0030A4FD0541E54170020540900020E54041
:1008EE00F0A3E541F0121364E541646445407004E1
:1008FE00F540F54120A32D7F0A7E0012183020A36B
:10090E002330A3FDE541154170021540900020E50E
:10091E0040F0A3E541F0121364E530452F7005F564
:10092E0040754164E538641270607F0C1218C5E49E
:10093E00F538752B01753701753F01E53764017088
:10094E00497F801218C5E490004FF090004FE0FFF1
:10095E00C39410500FEF900BD512182790004FE054
:10096E0004F080E77FC01218C5E490004FF09000AD
:10097E004FE0FFC39410500FEF900BC41218279046
:0A098E00004FE004F080E7E4F537C5
:01099800223C
:100FBC00E55D64017068F52B121953E5216404702A
:100FCC005DF55DF590752B01F533752401753F01C9
:100FDC00753401752801F527F55FF531F5327F8001
:100FEC001218C5E4F9E9FF3395E0FE74D52FF582AC
:100FFC00740B3EF583E412182709E9B410E77FC09F
:10100C001218C5E4F9E9FF3395E0FE74C42FF5829C
:10101C00740B3EF583E412182709E9B410E7E55C7C
:10102C006401706FF52B12193AE52164047064F5B4
:10103C0021F590F528752701F55C752B01F553F515
:10104C0054F55F753301F524753F01753401F531A5
:10105C007532017F801218C5E4F9E9FF3395E0FE83
:10106C0074D52FF582740B3EF583E412182709E929
:10107C00B410E77FC01218C5E4F9E9FF3395E0FE20
:10108C0074C42FF582740B3EF583E412182709E91A
:03109C00B410E7A6
:01109F00222E
:1013DF00900028E0FF7E00900008EEF0A3EFF07C75
:1013EF00007D0A120A07900002EEF0A3EFF09000C2
:1013FF0008E0FEA3E0FF7C007D0A120A07900000C0
:10140F00ECF0A3EDF07FC712189C9000001218A00B
:10141F00900047E0FF7E00900010EEF0A3EFF07C0D
:10142F00007D0A120A0790000EEEF0A3EFF0A3E082
:10143F00FEA3E0FF7C007D0A120A0790000CECF07F
:10144F00A3EDF07FCD12189C90000CA3E02430FF89
:03145F000218A5CB
:1014E200900018E555F0A3E556F07C007D0AFFAEAA
:1014F20055120A07900010ECF0A3EDF0900018E0EE
:10150200FEA3E0FF7C007D64120A077E007F0ACF03
:10151200CDCFCECCCE120A07900012EEF0A3EFF0A0
:10152200900018E0FEA3E0FF7C037DE8120A077E2C
:10153200007F64CFCDCFCECCCE120A07900014EE3E
:10154200F0A3EFF07FC21218C59000141218A090F9
:1015520000121218A0900010A3E02430FF0218A578
:10156200900028E557F0A3E558F07C007D0AFFAE15
:1015720057120A07900020ECF0A3EDF0900028E04B
:10158200FEA3E0FF7C007D64120A077E007F0ACF83
:10159200CDCFCECCCE120A07900022EEF0A3EFF010
:1015A200900028E0FEA3E0FF7C037DE8120A077E9C
:1015B200007F64CFCDCFCECCCE120A07900024EEAE
:1015C200F0A3EFF07F831218C59000241218A090A8
:1015D20000221218A0900020A3E02430FF0218A5D8
:0A135A00900020E522F0A3E523F047
:10136400900020E0FEA3E0FF7C007D0A120A0790B3
:101374000018ECF0A3EDF0900020E0FEA3E0FF7C69
:10138400007D64120A077E007F0ACFCDCFCECCCE7B
:10139400120A0790001AEEF0A3EFF0900020E0FE8E
:1013A400A3E0FF7C037DE8120A077E007F64CFCDB3
:1013B400CFCECCCE120A0790001CEEF0A3EFF07F44
:1013C400871218C590001C1218A090001A1218A0B9
:0B13D400900018A3E02430FF0218A5D1
:1018DE00758C3C758ABAD2A9D28C75CB3C75CAAFC1
:1018EE00D2CAD2ADD28AE4F58CF58AD28CD2AA2293
:1017F000758911758C3C758ABAD2AFC2ACD2A9D2A8
:101800008C758B3C758DBAD28ED2AB75CB3C75CABC
:10181000AFD2CAD2ADD28AE4F58CF58AD28CD2AAE4
:03182000C2AC2235
:1010A0001217787F801218C5E4900048F09000482D
:1010B000E0FFC39410500FEF900CDA121827900045
:1010C00048E004F080E71219B290002FE0B42BF949
:1010D000A3E0B449F4A3E0B450EF7F801218C5E454
:1010E000900048F0900048E0FFC39410500FEF903C
:1010F0000BE7121827900048E004F080E77FC01249
:1011000018C5E4900048F0900048E0FFC3941050E8
:101110000FEF900C3F121827900048E004F080E792
:101120007524017F0A7E00121830755D01E4F55CBC
:10113000F521F53FF534E490004BF0A3F090004B1F
:10114000E0FEA3E0FFC39414EE9400501D742F2F13
:10115000F582E43400F5837420F090004CE004F054
:0B116000700690004BE004F080D322EA
:100CFC001217F0121651754D00754EC8E4F55D755E
:100D0C005C01752B01F52F753026F53D753E50F5C0
:100D1C0029752A78F52275230AF5257526B4F54030
:100D2C00754155753301752401753F01753401F515
:100D3C0021F528F527755F01F553755401F531F54B
:100D4C0032D200C2011215E27555008F56D200D274
:100D5C00011215E27557008F5875480075490C75CE
:100D6C003500753605752C00752D0A755A00755BA6
:100D7C000C754B00754C0675420075430A75510095
:100D8C0075520C754400754507753900753A0A1291
:100D9C00002E120FBCE52BB401F512116B1213DFF0
:100DAC00D200C2011215E27555008F561214E2D210
:100DBC0000D2011215E27557008F58121562E52703
:100DCC00B4012AD3E5589526E55795254003755D62
:100DDC00017812E6B44005E4F6755D01E4F521D323
:100DEC00E5569541E55595404003755D01E5286450
:100DFC000170347812E6B44405E4F6755C01E4F550
:100E0C0021C3E5589523E55795225003755C0120C5
:100E1C00B5157F0A7E0012183020B50B752E01D245
:100E2C00AD755C01E4F54A20A3127F0A7E0012180E
:100E3C003020A30830A3FDE4F52ED2B1852C4F85CC
:100E4C002D507F8E1217B785484F8549507F8812D9
:080E5C0018C51217C8020D9B16
:03002B0002187642
:10187600C0E0C0D0C2CF0559054AE559B40F057579
:1018860059000521E52EB40108E54AB41403754A4A
:0618960000D0D0D0E032CA
:03000B00020003ED
:07000300758C3C758ABA32CE
:03001B00021225A9
:10122500C0E0C0D0758C3C758ABAD28E053CE53CD1
:101235007002053B6414453B700CF53BF53C052DF0
:10124500E52D7002052CE52D643C452C700CF52C24
:10125500F52D0536E53670020535E536643C453530
:101265007016F535F5360549E549700205486418E7
:1012750045487004F548F549E527B40121E55BB516
:10128500491CE55AB54817E54CB53612E54BB53559
:101295000DE543B52D08E542B52C03755D01E5283F
:1012A500B40121E549B5521CE548B55117E536B5F8
:1012B5004512E535B5440DE52DB53A08E52CB539AA
:0912C50003755C01D0D0D0E032C9
:03001300020E6476
:100E6400C0E0C0F0C083C082C0D075D008AF8CEFA2
:100E7400FEAD8A7C00E42DFFEC3EFEE4FD78141206
:100E84000B35758C00758A00E47F407E1FFDFC786D
:100E940014120B28D3120B0B4022E47FB07E36FDD4
:100EA400FC7814120B28C3120B0B5010781C120B75
:100EB4004100000000781B7601020FB1781BE66444
:100EC400016003020FB17FAA7E05FDFC7814120BAA
:100ED40028D3120B0B404EE47FB87E0BFDFC781434
:100EE400120B28C3120B0B503CE47B08FAF9F8C030
:100EF40008781C120B1CD008120A7974102FF8E61B
:100F0400C3134480FEC00E74102FF8D0E0F6781C92
:100F1400120B1CEF2401FFE43EFEE43DFDE43CFC27
:100F2400781C120B35E47FBC7E02FDFC7814120B96
:100F340028D3120B0B4048E47FAA7E05FDFC7814ED
:100F4400120B28C3120B0B5036E47B08FAF9F8C0D5
:100F540008781C120B1CD008120A7974102FF8C0E0
:100F640008E6FFC313D008F6781C120B1CEF24010B
:100F7400FFE43EFEE43DFDE43CFC781C120B35E44A
:100F84007F20FEFDFC781C120B28C3120B0B701D76
:100F9400781C120B4100000000781B76007813E6E1
:100FA400F41866781A7004760180027600D0D0D0E6
:080FB40082D083D0F0D0E032BE
:1012DA00020CFCE493A3F8E493A34003F68001F222
:1012EA0008DFF48029E493A3F85407240CC8C33315
:1012FA00C4540F4420C8834004F456800146F6DFE4
:10130A00E4800B01020408102040809016BDE47EA0
:10131A00019360BCA3FF543F30E509541FFEE493D8
:10132A00A360010ECF54C025E060A840B8E493A39F
:10133A00FAE493A3F8E493A3C8C582C8CAC583CACA
:10134A00F0A3C8C582C8CAC583CADFE9DEE780BE82
:0117200000C8
:10099900BB010689828A83E0225002E722BBFE025C
:0909A900E32289828A83E493228F
:1009B200BC000BBE0029EF8DF084FFADF022E4CC29
:1009C200F875F008EF2FFFEE33FEEC33FCEE9DECF2
:1009D200984005FCEE9DFE0FD5F0E9E4CEFD22ED38
:1009E200F8F5F0EE8420D21CFEADF075F008EF2F82
:1009F200FFED33FD4007985006D5F0F222C398FD73
:050A02000FD5F0EA220F
:100A0700C2D5EC30E709B2D5E4C39DFDE49CFCEE0A
:100A170030E715B2D5E4C39FFFE49EFE1209B2C3C7
:100A2700E49DFDE49CFC80031209B230D507C3E4C2
:060A37009FFFE49EFE2279
:100A3D0075F008758200EF2FFFEE33FECD33CDCC70
:100A4D0033CCC58233C5829BED9AEC99E5829840F3
:100A5D000CF582EE9BFEED9AFDEC99FC0FD5F0D6D0
:100A6D00E4CEFBE4CDFAE4CCF9A88222B800C1B9FA
:100A7D000059BA002DEC8BF084CFCECDFCE5F0CB38
:100A8D00F97818EF2FFFEE33FEED33FDEC33FCEB71
:100A9D0033FB10D703994004EB99FB0FD8E5E4F92C
:100AAD00FA227818EF2FFFEE33FEED33FDEC33FC19
:100ABD00C933C910D7059BE99A4007EC9BFCE99A0D
:100ACD00F90FD8E0E4C9FAE4CCFB2275F010EF2F52
:100ADD00FFEE33FEED33FDCC33CCC833C810D70752
:100AED009BEC9AE899400AED9BFDEC9AFCE899F88D
:0E0AFD000FD5F0DAE4CDFBE4CCFAE4C8F92220
:100B0B00EB9FF5F0EA9E42F0E99D42F0E89C45F040
:010B1B0022B7
:0C0B1C00E6FC08E6FD08E6FE08E6FF2205
:0D0B2800E6FB08E6F908E6FA08E6CBF8223D
:0C0B3500ECF608EDF608EEF608EFF622EC
:100B4100D083D082E493F608740193F6087402937B
:090B5100F608740393F6740473B2
:00000001FF
