:03000000020F8C60
:0C0F8C00787FE4F6D8FD75817D020FD35C
:100CDE0057656C636F6D6520746F2075736520208A
:100CEE000077696E646F7720202073797374656D59
:100CFE00202000533D323533543D38356F43553D3A
:100D0E003835250042723D202020202031323A30E5
:100D1E00303A3030200077696E646F77206F7065DF
:100D2E006E2020202020200077696E646F7720636C
:100D3E006C6F736520202020200047576272696710
:100D4E003D202020204C555820200055502D487510
:100D5E006D3D20202020252020202000506C656134
:100D6E00736520696E7075742E2E2E202000506CC7
:100D7E006561736520776169742E2E2E20200055D3
:100D8E00502D54454D3D202020206F432020200023
:100D9E00534574696D65202031323A30303A303027
:100DAE00004F4E74696D65202031323A30303A3042
:100DBE0030004F4674696D65202031323A30303A3A
:100DCE0030300055502D534D4F3D202020202020F7
:100DDE00202020004B57627269673D202020204C56
:100DEE00555820200001030206040C080909080CBE
:050DFE000406020301E0
:10136100017400044500000000025C000048000018
:10137100000000000000000048000800000000001C
:1013810000000048001000000000000000004800BC
:1013910018000000000000000048002000000000CC
:0413A1000000000048
:10154D00D3EF9400EE9400400DE4FD0DBD1BFCEFB8
:06155D001F70ED1E80EA84
:011563002265
:1015020015101510151015101510151015101510B1
:0815120015101510151015103D
:01151A0022AE
:1013A600E4FF753B0220B707AE3B053BEE70F61235
:1013B6001502121502E4F56130B703756101753B3C
:1013C6000230B707AE3B053BEE70F6E53B640160C5
:0F13D6000EE57725E0F577E56142770FBF08C395
:0113E50022E5
:10121A00C2B77FB47E0012154DD2B712150212154D
:10122A0002121502121502D2B720B756753B0220D8
:10123A00B707AF3B053BEF70F6753B0230B707AF18
:10124A003B053BEF70F61213A68577751213A68538
:10125A0077761213A68577361213A685773A121374
:10126A00A6857760D2B7E536253A25752576F561E4
:10127A00B5600F857562857663853625853A2A8538
:03128A00603C22A3
:10128D00C2B20000D2B4D2B60000C2B60000A200B5
:10129D0092B4D2B60000C2B60000A20192B4D2B68A
:1012AD000000C2B6D2B4E4FFFEEF25E0FFD2B600D7
:1012BD0000C2B60000A2B4E43342070EBE08EAE451
:1012CD00FD30B4027D80E4FEEDC313FDD2B6000007
:1012DD00C2B6000030B4034305800EBE07EAD2B299
:0B12ED00C2B6D2B4EFB50501227F00AD
:0112F80022D3
:071564003AF583E493F590D2
:0E156B00AF5FAE5EEF1FAC0670011E4C70F657
:01157900224F
:1014E400D3EF9400EE940040147DF47C01ED1D7064
:0D14F400011CED4C70F7EF1F70E61E80E349
:0115010022C7
:0E144E00900D6AE51093FF1214AB7F027E0032
:10145C00D3EF9400EE940040147D0A7C00ED1D70D7
:0D146C00011CED4C70F7EF1F70E61E80E3D1
:011479002250
:10151B00E4FBFA74F32BF582740D1215640BBB000C
:08152B00010AEB64084A70EBB1
:011533002295
:10153400E4FBFA74FB2BF582740D1215640BBB00EB
:08154400010AEB64084A70EB98
:01154C00227C
:0714C4007F881214CB7F0E9C
:1014CB00C2A0C2A28F807F057E0012145CD2A27FC5
:0914DB00057E0012145CC2A2227D
:0914A2001214CBA3A3E02430FFD7
:1014AB00D2A0C2A28F807F057E0012145CD2A27FD5
:0914BB00057E0012145CC2A2229D
:1012F900C2A1C2A27F381214CB7F0C1214CB7F0675
:101309001214CB7F011214CB7F801214CBE4FBEBB8
:10131900900CDE1214530BBB10F57FC01214CBE4F2
:10132900FBEB900CEF1214530BBB10F57FC87E003A
:101339001214E47F801214CBE4FBEB900D361214E7
:10134900530BBB10F57FC01214CBE4FBEB900D7C63
:071359001214530BBB10F549
:01136000226A
:1013E6001214CB1213F78538648539657F8B121476
:0113F600CB2B
:1013F700AE64AF657C007D0A120A29AB07AE64AF05
:10140700657C007D0A120A29AA05EB2430FF121415
:08141700ABEA2430FF0214AB24
:10002E00E549640160030200E0E5356401704F208C
:10003E00A64C7F801214CBE4F510900D24121451AF
:10004E000510E510C3941040F17FC01214CBE4F5F7
:10005E0010E510900D7C1214530510E510C394108A
:10006E0040EF7524017F0A7E0012145C20A60F302B
:10007E00A6FD757301E4F572F521F549F537E52412
:10008E006401704E20A74B7F801214CBE4F510E56F
:10009E0010900D361214530510E510C3941040EF56
:1000AE007FC01214CBE4F510E510900D7C121453A2
:1000BE000510E510C3941040EF7F0A7E0012145C09
:1000CE0020A70F30A7FDE4F573757201F521F549F0
:1000DE00F537E5376401600302088B20A516753DE0
:1000EE00017F0AFE12145C20A50A30A5FDE4F52D51
:1000FE00053EF549E53E6401704FE53D64017049EA
:10010E007F801214CBE4F510E510900D9E1214535F
:10011E000510E510C3941040EF7FC01214CBE4F528
:10012E001012144EE4F53D0510E510C3941040F185
:10013E008557648558657F881213E6852E64852F52
:10014E00657F8E1214CB1213F7E53E6402704D8557
:10015E0057648558651214C420A41F30A4FD055899
:10016E00E55870020557855764F5651213F7E55883
:10017E00641845577004F557F55820A31F30A3FD9A
:10018E00E558155870021557855764855865121332
:10019E00F7E55845577005F557755817E53E640352
:1001AE00704F8538648539657F8B1214C620A41F65
:1001BE0030A4FD0539E53970020538853864F565DA
:1001CE001213F7E539643C45387004F538F53920DB
:1001DE00A31F30A3FDE53915397002153885386433
:1001EE008539651213F7E53945387005F5387539D7
:1001FE003BE53E6404704F852E64852F657F8E121D
:10020E0014C620A41F30A4FD052FE52F7002052E65
:10021E00852E64F5651213F7E52F643C452E7004A8
:10022E00F52EF52F20A31F30A3FDE52F152F7002FD
:10023E00152E852E64852F651213F7E52F452E702A
:10024E0005F52E752F3BE53E6405705BE53D6401BB
:10025E0070557F801214CBE4F510E510900DAF129F
:10026E0014530510E510C3941040EF7FC01214CB49
:10027E00E4F51012144E0510E510C3941040F485E9
:10028E0070648571657F881214CB1213F7855A64DA
:10029E00855B651213F28550648551657F8E12144D
:1002AE00CB1213F7E4F53DE53E640670471214C415
:1002BE0020A41F30A4FD0571E571700205708570D4
:1002CE0064F5651213F7E571641845707004F570E6
:1002DE00F57120A31F30A3FDE57115717002157025
:1002EE008570648571651213F7E57145707005F5BB
:1002FE0070757117E53E640770497F8B1214C62026
:10030E00A41F30A4FD055BE55B7002055A855A6497
:10031E00F5651213F7E55B643C455A7004F55AF522
:10032E005B20A31F30A3FDE55B155B7002155A859C
:10033E005A64855B651213F7E55B455A7005F55AED
:10034E00755B3BE53E640870497F8E1214C620A48F
:10035E001F30A4FD0551E55170020550855064F51E
:10036E00651213F7E551643C45507004F550F55194
:10037E0020A31F30A3FDE551155170021550855075
:10038E00648551651213F7E55145507005F55075AA
:10039E00513BE53E6409705BE53D640170557F801D
:1003AE001214CBE4F510E510900DC0121453051085
:1003BE00E510C3941040EF7FC01214CBE4F5101279
:1003CE00144EE4F53D0510E510C3941040F1856719
:1003DE00648568657F881214CB1213F78552648585
:1003EE0053651213F2853F648540657F8E1214CBE0
:1003FE001213F7E53E640A70471214C420A41F308E
:10040E00A4FD0568E56870020567856764F56512E9
:10041E0013F7E568641845677004F567F56820A35F
:10042E001F30A3FDE5681568700215678567648542
:10043E0068651213F7E56845677005F56775681707
:10044E00E53E640B70497F8B1214C620A41F30A4A6
:10045E00FD0553E55370020552855264F56512137E
:10046E00F7E553643C45527004F552F55320A31F33
:10047E0030A3FDE553155370021552855264855312
:10048E00651213F7E55345527005F55275533BE56A
:10049E003E640C70497F8E1214C620A41F30A4FD3A
:1004AE000540E5407002053F853F64F5651213F780
:1004BE00E540643C453F7004F53FF54020A31F30F6
:1004CE00A3FDE54015407002153F853F64854065EC
:1004DE001213F7E540453F7005F53F75403BE53E8D
:1004EE00640D60030205807F0C1214CB121018E508
:1004FE003D640170307F801214CBE4F510E510904E
:10050E000D481214530510E510C3941040EF7FC030
:10051E001214CBE4F51012144EE4F53D0510E5105F
:10052E00C3941040F120A4247F0A7E0012145C2094
:10053E00A41A30A4FD0523E523700205221210181B
:10054E00E52364FA45227004F522F52320A3237FC8
:10055E000A7E0012145C20A31930A3FDE523152397
:10056E0070021522121018E52345227005F522752A
:10057E0023FAE53E640E60030206327F0C1214CBA2
:10058E00900020E526F0A3E527F0121022E53D6449
:10059E000170307F801214CBE4F510E510900DE25F
:1005AE001214530510E510C3941040EF7FC01214BF
:1005BE00CBE4F51012144EE4F53D0510E510C3948E
:1005CE001040F120A42E7F0A7E0012145C20A42479
:1005DE0030A4FD0527E52770020526900020E526AC
:1005EE00F0A3E527F0121022E52764FA45267004E1
:1005FE00F526F52720A32D7F0A7E0012145C20A37A
:10060E002330A3FDE527152770021526900020E55F
:10061E0026F0A3E527F0121022E52745267005F5F2
:10062E00267527FAE53E640F60030206DF90002070
:10063E00E543F0A3E544F0121022E53D640170306D
:10064E007F801214CBE4F510E510900D591214535F
:10065E000510E510C3941040EF7FC01214CBE4F5E3
:10066E001012144EE4F53D0510E510C3941040F140
:10067E0020A42E7F0A7E0012145C20A42430A4FD38
:10068E000544E54470020543900020E543F0A3E5E0
:10069E0044F0121022E544646445437004F543F5BA
:1006AE004420A32D7F0A7E0012145C20A32330A3C6
:1006BE00FDE544154470021543900020E543F0A378
:1006CE00E544F0121022E54445437005F5437544A8
:1006DE0064E53E6410600302078C900020E531F063
:1006EE00A3E532F0121022E53D640170307F8012D6
:1006FE0014CBE4F510E510900D8D1214530510E592
:10070E0010C3941040EF7FC01214CBE4F5101214F6
:10071E004EE4F53D0510E510C3941040F120A42ED3
:10072E007F0A7E0012145C20A42430A4FD0532E55D
:10073E003270020531900020E531F0A3E532F0125F
:10074E001022E532646445317004F531F53220A390
:10075E002D7F0A7E0012145C20A32330A3FDE53208
:10076E00153270021531900020E531F0A3E532F01C
:10077E00121022E53245317005F531753264E53ED1
:10078E0064116003020839900020E54EF0A3E54F96
:10079E00F0121022E53D640170307F801214CBE41C
:1007AE00F510E510900DD11214530510E510C394F9
:1007BE001040EF7FC01214CBE4F51012144EE4F586
:1007CE003D0510E510C3941040F120A42E7F0A7E43
:1007DE000012145C20A42430A4FD054FE54F7002D6
:1007EE00054E900020E54EF0A3E54FF0121022E5E5
:1007FE004F6464454E7004F54EF54F20A32D7F0ACD
:10080E007E0012145C20A32330A3FDE54F154F701C
:10081E0002154E900020E54EF0A3E54FF012102287
:10082E00E53245317005F54E754F64E53E64127044
:10083E004C7F0C1214CBE4F53E752D01753D017500
:10084E004901E53D640170357F801214CBE4F5104B
:10085E00E510900D121214530510E510C3941040BC
:10086E00EF7FC01214CBE4F510E510900D011214B9
:0D087E00530510E510C3941040EFE4F53D64
:01088B00224A
:100E0300E57364017066F52D121534E521640A70EB
:100E13005BF573F590752D01F53575240175490161
:100E2300753701752901F528F57DF533F5347F8094
:100E33001214CBE4F9E9FF3395E0FE74122FF58227
:100E4300740D3EF583E412145309B910E87FC01200
:100E530014CBE4F9E9FF3395E0FE74012FF58274B6
:100E63000D3EF583E412145309B910E8E5726401E9
:100E7300706DF52D12151BE521640A7062F521F5DD
:100E830090F529752801F572752D01F569F56AF557
:100E93007D753501F524754901753701F5337534D1
:100EA300017F801214CBE4F9E9FF3395E0FE74125D
:100EB3002FF582740D3EF583E412145309B910E83B
:100EC3007FC01214CBE4F9E9FF3395E0FE74012FE0
:0F0ED300F582740D3EF583E412145309B910E84B
:010EE20022ED
:10119D00AF257E00900008EEF0A3EFF07C007D0AF5
:1011AD00120A7E900002EEF0A3EFF0900008E0FE30
:1011BD00A3E0FF7C007D0A120A7E900000ECF0A3F4
:1011CD00EDF07FC71214A29000001214A6AF627E3C
:1011DD0000900010EEF0A3EFF07C007D0A120A7E65
:1011ED0090000EEEF0A3EFF0A3E0FEA3E0FF7C0075
:1011FD007D0A120A7E90000CECF0A3EDF07FCD126B
:0D120D0014A290000CA3E02430FF0214ABEB
:10109D00900018E56BF0A3E56CF07C007D0AFFAEC7
:1010AD006B120A7E900010ECF0A3EDF0900018E0AA
:1010BD00FEA3E0FF7C007D64120A7E7E007F0ACFD6
:1010CD00CDCFCECCCE120A7E900012EEF0A3EFF073
:1010DD00900018E0FEA3E0FF7C037DE8120A7E7EFF
:1010ED00007F64CFCDCFCECCCE120A7E900014EE11
:1010FD00F0A3EFF07FC21214CB9000141214A6903F
:10110D0000121214A6900010A3E02430FF0214ABBD
:10111D00900028E56DF0A3E56EF07C007D0AFFAE32
:10112D006D120A7E900020ECF0A3EDF0900028E007
:10113D00FEA3E0FF7C007D64120A7E7E007F0ACF55
:10114D00CDCFCECCCE120A7E900022EEF0A3EFF0E2
:10115D00900028E0FEA3E0FF7C037DE8120A7E7E6E
:10116D00007F64CFCDCFCECCCE120A7E900024EE80
:10117D00F0A3EFF07F831214CB9000241214A690ED
:10118D0000221214A6900020A3E02430FF0214AB1D
:0A101800900020E522F0A3E523F08C
:10102200900020E0FEA3E0FF7C007D0A120A7E9081
:101032000018ECF0A3EDF0900020E0FEA3E0FF7CAE
:10104200007D64120A7E7E007F0ACFCDCFCECCCE49
:10105200120A7E90001AEEF0A3EFF0900020E0FE5C
:10106200A3E0FF7C037DE8120A7E7E007F64CFCD81
:10107200CFCECCCE120A7E90001CEEF0A3EFF07F12
:10108200871214CB90001C1214A690001A1214A6F8
:0B109200900018A3E02430FF0214AB14
:10141F00758911758C3C758ABAD2AFD2A9D28C75E9
:10142F008B3C758DBAD28ED2AB75CB3C75CAAFD211
:0F143F00CAD2ADD28AE4F58CF58AD28CD2AA2219
:10088C0012141F1212F9755E00755FC8E4F57375CA
:10089C007201752D01F531753226F543754450F50D
:1008AC002B752C78F52275230AF5267527B4F54E91
:1008BC00754F55753501752401754901753701F56D
:1008CC0021F529F528757D01F569756A01F533F572
:1008DC0034D200C20112128D756B008F6CD200D213
:1008EC000112128D756D008F6E75570075580C7551
:1008FC003800753905752E00752F0A7570007571E5
:10090C000C755A00755B0675500075510A756700B9
:10091C0075680C755200755307753F0075400A12C7
:10092C00002E120E03E52DB401F512121A12119DB0
:10093C00D200C20112128D756B008F6C12109DD3F8
:10094C00E56C954FE56B954E5004D2B0D2B1D20008
:10095C00D20112128D756D008F6E12111DE5286477
:10096C0001703BD3E56E9527E56D952640037573B5
:10097C0001E547B44006E4F547757301E4F521D36E
:10098C00E5259532E495314003757301D3E56C95FB
:10099C004FE56B954E4007757301C2B0C2B1E529A6
:1009AC0064017048E547B44406E4F547757201E408
:1009BC00F521D3E5629544E49543400A757201E450
:1009CC00F57DF569F56AC3E56E9523E56D952250C5
:1009DC000375720120B5157F0A7E0012145C20B5D8
:1009EC000B753001D2AD757201E4F55920A3127F5D
:1009FC000A7E0012145C20A30830A3FDE4F530D26B
:100A0C00B1852E64852F657F8E1213E6855764851C
:0D0A1C0058657F881214CB1213F702092BC6
:03002B0002147A42
:10147A00C0E0C0D0C2CF056F0559E56FB40F05753E
:10148A006F000521E530B4010AE559B41405755910
:08149A0000B2B1D0D0D0E03265
:03000B00020003ED
:07000300758C3C758ABA32CE
:03001B00020EE3EF
:100EE300C0E0C0D0758C3C758ABAD28E0542E5420B
:100EF3007002054164144541700CF541F542052F1C
:100F0300E52F7002052EE52F643C452E700CF52E5F
:100F1300F52F0539E53970020538E539643C453864
:100F23007016F538F5390558E558700205576418F9
:100F330045577004F557F558E528B40121E571B517
:100F4300581CE570B55717E55BB53912E55AB53846
:100F53000DE551B52F08E550B52E03757301E5294D
:100F6300B40121E558B5681CE557B56717E539B5F0
:100F73005312E538B5520DE52FB54008E52EB53FC0
:090F830003757201D0D0D0E032F8
:03001300020B934A
:100B9300C0E0C0F0C083C082C0D075D008AF8CEF76
:100BA300FEAD8A7C00E42DFFEC3EFEE48F4D8E4CBF
:100BB300F54BF54AF58CF58A7F407E1FFDAB4DAAB8
:100BC3004CA94BA84AD3120B824020E47FB07E3657
:100BD300FDFCA84A120B825012757B00757A0075D2
:100BE3007900757800757401020CD3E574640160B3
:100BF30003020CD37FAA7E05FDFCAB4DAA4CA94B87
:100C0300A84AD3120B824047E47FB87E0BFDFCA8B1
:100C13004A120B825039E47B08FAF9F8AF7BAE7ABB
:100C2300AD79AC78120AF074452FF8E6C31344800B
:100C3300FEC00E74452FF8D0E0F6E57B2401F57B6A
:100C4300E4357AF57AE43579F579E43578F578E4BD
:100C53007FBC7E02FDFCAB4DAA4CA94BA84AD31224
:100C63000B824040E47FAA7E05FDFCA84A120B825A
:100C73005032E47B08FAF9F8AF7BAE7AAD79AC7801
:100C8300120AF074452FF8C008E6C313D008F6E53E
:100C93007B2401F57BE4357AF57AE43579F579E45B
:100CA3003578F578E47F20FEFDFCAB7BAA7AA97941
:100CB300A878C3120B827018F57BF57AF579F5786D
:100CC300F574E548F4B5470575660180037566005C
:0B0CD300D0D0D082D083D0F0D0E0322F
:100F980002088CE493A3F8E493A34003F68001F2DB
:100FA80008DFF48029E493A3F85407240CC8C3335A
:100FB800C4540F4420C8834004F456800146F6DF29
:100FC800E4800B0102040810204080901361E47E45
:100FD800019360BCA3FF543F30E509541FFEE4931E
:100FE800A360010ECF54C025E060A840B8E493A3E5
:100FF800FAE493A3F8E493A3C8C582C8CAC583CA10
:10100800F0A3C8C582C8CAC583CADFE9DEE780BEC7
:0113A5000047
:100A2900BC000BBE0029EF8DF084FFADF022E4CCB1
:100A3900F875F008EF2FFFEE33FEEC33FCEE9DEC7A
:100A4900984005FCEE9DFE0FD5F0E9E4CEFD22EDC0
:100A5900F8F5F0EE8420D21CFEADF075F008EF2F0A
:100A6900FFED33FD4007985006D5F0F222C398FDFB
:050A79000FD5F0EA2298
:100A7E00C2D5EC30E709B2D5E4C39DFDE49CFCEE93
:100A8E0030E715B2D5E4C39FFFE49EFE120A29C3D8
:100A9E00E49DFDE49CFC8003120A2930D507C3E4D3
:060AAE009FFFE49EFE2202
:100AB40075F008758200EF2FFFEE33FECD33CDCCF9
:100AC40033CCC58233C5829BED9AEC99E58298407C
:100AD4000CF582EE9BFEED9AFDEC99FC0FD5F0D659
:100AE400E4CEFBE4CDFAE4CCF9A88222B800C1B983
:100AF4000059BA002DEC8BF084CFCECDFCE5F0CBC1
:100B0400F97818EF2FFFEE33FEED33FDEC33FCEBF9
:100B140033FB10D703994004EB99FB0FD8E5E4F9B4
:100B2400FA227818EF2FFFEE33FEED33FDEC33FCA1
:100B3400C933C910D7059BE99A4007EC9BFCE99A95
:100B4400F90FD8E0E4C9FAE4CCFB2275F010EF2FDA
:100B5400FFEE33FEED33FDCC33CCC833C810D707DA
:100B64009BEC9AE899400AED9BFDEC9AFCE899F815
:0E0B74000FD5F0DAE4CDFBE4CCFAE4C8F922A8
:100B8200EB9FF5F0EA9E42F0E99D42F0E89C45F0C9
:010B92002240
:00000001FF
